{
  "contractName": "Voting",
  "abi": [
    {
      "anonymous": false,
      "inputs": [
        {
          "indexed": false,
          "name": "candidateID",
          "type": "uint256"
        }
      ],
      "name": "AddedCandidate",
      "type": "event"
    },
    {
      "constant": false,
      "inputs": [
        {
          "name": "name",
          "type": "string"
        },
        {
          "name": "avatar",
          "type": "string"
        }
      ],
      "name": "addCandidate",
      "outputs": [],
      "payable": false,
      "stateMutability": "nonpayable",
      "type": "function"
    },
    {
      "constant": false,
      "inputs": [
        {
          "name": "candidateID",
          "type": "uint256"
        }
      ],
      "name": "vote",
      "outputs": [],
      "payable": false,
      "stateMutability": "nonpayable",
      "type": "function"
    },
    {
      "constant": true,
      "inputs": [
        {
          "name": "candidateID",
          "type": "uint256"
        }
      ],
      "name": "totalVotes",
      "outputs": [
        {
          "name": "",
          "type": "uint256"
        }
      ],
      "payable": false,
      "stateMutability": "view",
      "type": "function"
    },
    {
      "constant": true,
      "inputs": [],
      "name": "getNumOfCandidates",
      "outputs": [
        {
          "name": "",
          "type": "uint256"
        }
      ],
      "payable": false,
      "stateMutability": "view",
      "type": "function"
    },
    {
      "constant": true,
      "inputs": [],
      "name": "getNumOfVoters",
      "outputs": [
        {
          "name": "",
          "type": "uint256"
        }
      ],
      "payable": false,
      "stateMutability": "view",
      "type": "function"
    },
    {
      "constant": true,
      "inputs": [
        {
          "name": "candidateID",
          "type": "uint256"
        }
      ],
      "name": "getCandidate",
      "outputs": [
        {
          "name": "",
          "type": "uint256"
        },
        {
          "name": "",
          "type": "string"
        },
        {
          "name": "",
          "type": "string"
        }
      ],
      "payable": false,
      "stateMutability": "view",
      "type": "function"
    }
  ],
  "bytecode": "0x608060405234801561001057600080fd5b506107c4806100206000396000f300608060405260043610610078576000357c0100000000000000000000000000000000000000000000000000000000900463ffffffff1680630121b93f1461007d57806319e6e158146100aa57806326541b56146100eb57806335b8e8201461019a57806365fc783c146102b3578063e8685ba1146102de575b600080fd5b34801561008957600080fd5b506100a860048036038101908080359060200190929190505050610309565b005b3480156100b657600080fd5b506100d560048036038101908080359060200190929190505050610435565b6040518082815260200191505060405180910390f35b3480156100f757600080fd5b50610198600480360381019080803590602001908201803590602001908080601f0160208091040260200160405190810160405280939291908181526020018383808284378201915050505050509192919290803590602001908201803590602001908080601f016020809104026020016040519081016040528093929190818152602001838380828437820191505050505050919291929050505061048a565b005b3480156101a657600080fd5b506101c560048036038101908080359060200190929190505050610569565b604051808481526020018060200180602001838103835285818151815260200191508051906020019080838360005b8381101561020f5780820151818401526020810190506101f4565b50505050905090810190601f16801561023c5780820380516001836020036101000a031916815260200191505b50838103825284818151815260200191508051906020019080838360005b8381101561027557808201518184015260208101905061025a565b50505050905090810190601f1680156102a25780820380516001836020036101000a031916815260200191505b509550505050505060405180910390f35b3480156102bf57600080fd5b506102c86106e0565b6040518082815260200191505060405180910390f35b3480156102ea57600080fd5b506102f36106ea565b6040518082815260200191505060405180910390f35b6000600115156002600084815260200190815260200160002060020160009054906101000a900460ff16151514156104315760001515600460003373ffffffffffffffffffffffffffffffffffffffff1673ffffffffffffffffffffffffffffffffffffffff16815260200190815260200160002060009054906101000a900460ff1615151415610430576001600460003373ffffffffffffffffffffffffffffffffffffffff1673ffffffffffffffffffffffffffffffffffffffff16815260200190815260200160002060006101000a81548160ff021916908315150217905550600160008154809291906001019190505590506020604051908101604052808381525060036000838152602001908152602001600020600082015181600001559050505b5b5050565b6000806000809150600090505b6001548110156104805783600360008381526020019081526020016000206000015414156104735781806001019250505b8080600101915050610442565b8192505050919050565b6000806000815480929190600101919050559050606060405190810160405280848152602001838152602001600115158152506002600083815260200190815260200160002060008201518160000190805190602001906104ec9291906106f3565b5060208201518160010190805190602001906105099291906106f3565b5060408201518160020160006101000a81548160ff0219169083151502179055509050507fec542c373a064661ffef02d633752debf28f3e6c9f253680822d9ccf8b47aec6816040518082815260200191505060405180910390a1505050565b6000606080836002600086815260200190815260200160002060000160026000878152602001908152602001600020600101818054600181600116156101000203166002900480601f0160208091040260200160405190810160405280929190818152602001828054600181600116156101000203166002900480156106305780601f1061060557610100808354040283529160200191610630565b820191906000526020600020905b81548152906001019060200180831161061357829003601f168201915b50505050509150808054600181600116156101000203166002900480601f0160208091040260200160405190810160405280929190818152602001828054600181600116156101000203166002900480156106cc5780601f106106a1576101008083540402835291602001916106cc565b820191906000526020600020905b8154815290600101906020018083116106af57829003601f168201915b505050505090509250925092509193909250565b6000600154905090565b60008054905090565b828054600181600116156101000203166002900490600052602060002090601f016020900481019282601f1061073457805160ff1916838001178555610762565b82800160010185558215610762579182015b82811115610761578251825591602001919060010190610746565b5b50905061076f9190610773565b5090565b61079591905b80821115610791576000816000905550600101610779565b5090565b905600a165627a7a72305820c274ace6d258948a535c1ac67d4498c381c731ccbc504a6aaabc10fdbce0ec800029",
  "source": "pragma solidity ^0.4.24;\n\ncontract Voting {\n    event AddedCandidate(uint candidateID);\n\n    struct Voter {\n        uint candidateIDVote;\n    }\n\n    struct Candidate {\n        string name;\n        string avatar;\n        bool doesExist;\n    }\n\n    uint numCandidates; // declares a state variable - number Of Candidates\n    uint numVoters;\n\n    mapping (uint => Candidate) candidates;\n    mapping (uint => Voter) voters;\n    mapping (address => bool ) Voted;\n\n    function addCandidate(string name, string avatar) public {\n        uint candidateID = numCandidates++;\n        candidates[candidateID] = Candidate(name,avatar,true);\n        emit AddedCandidate(candidateID);\n    }\n\n    function vote(uint candidateID) public {\n        // checks if the struct exists for that candidate\n        if (candidates[candidateID].doesExist == true) {\n            if (Voted[msg.sender] == false){\n                Voted[msg.sender] =true;\n                uint voterID = numVoters++; //voterID is the return variable\n                voters[voterID] = Voter(candidateID);\n            }\n        }\n    }\n\n    function totalVotes(uint candidateID) view public returns (uint) {\n        uint numOfVotes = 0; // we will return this\n        for (uint i = 0; i < numVoters; i++) {\n            if (voters[i].candidateIDVote == candidateID) {\n                numOfVotes++;\n            }\n        }\n        return numOfVotes;\n    }\n\n    function getNumOfCandidates() public view returns(uint) {\n        return numCandidates;\n    }\n\n    function getNumOfVoters() public view returns(uint) {\n        return numVoters;\n    }\n\n    function getCandidate(uint candidateID) public view returns (uint,string,string) {\n        return (candidateID,candidates[candidateID].name,candidates[candidateID].avatar);\n    }\n}",
  "sourcePath": "/home/ubuntu/Desktop/blockchain/Voting-with-ethereum/contracts/SimpleStorage.sol",
  "compiler": {
    "name": "solc",
    "version": "0.4.24+commit.e67f0147.Emscripten.clang"
  },
  "schemaVersion": "2.0.1",
  "updatedAt": "2019-05-02T03:55:10.140Z"
}