{
  "contractName": "Voting",
  "abi": [
    {
      "anonymous": false,
      "inputs": [
        {
          "indexed": false,
          "name": "candidateID",
          "type": "uint256"
        }
      ],
      "name": "AddedCandidate",
      "type": "event"
    },
    {
      "constant": false,
      "inputs": [
        {
          "name": "name",
          "type": "string"
        }
      ],
      "name": "addCandidate",
      "outputs": [],
      "payable": false,
      "stateMutability": "nonpayable",
      "type": "function"
    },
    {
      "constant": false,
      "inputs": [
        {
          "name": "candidateID",
          "type": "uint256"
        }
      ],
      "name": "vote",
      "outputs": [],
      "payable": false,
      "stateMutability": "nonpayable",
      "type": "function"
    },
    {
      "constant": true,
      "inputs": [
        {
          "name": "candidateID",
          "type": "uint256"
        }
      ],
      "name": "totalVotes",
      "outputs": [
        {
          "name": "",
          "type": "uint256"
        }
      ],
      "payable": false,
      "stateMutability": "view",
      "type": "function"
    },
    {
      "constant": true,
      "inputs": [],
      "name": "getNumOfCandidates",
      "outputs": [
        {
          "name": "",
          "type": "uint256"
        }
      ],
      "payable": false,
      "stateMutability": "view",
      "type": "function"
    },
    {
      "constant": true,
      "inputs": [],
      "name": "getNumOfVoters",
      "outputs": [
        {
          "name": "",
          "type": "uint256"
        }
      ],
      "payable": false,
      "stateMutability": "view",
      "type": "function"
    },
    {
      "constant": true,
      "inputs": [
        {
          "name": "candidateID",
          "type": "uint256"
        }
      ],
      "name": "getCandidate",
      "outputs": [
        {
          "name": "",
          "type": "uint256"
        },
        {
          "name": "",
          "type": "string"
        }
      ],
      "payable": false,
      "stateMutability": "view",
      "type": "function"
    }
  ],
  "bytecode": "0x608060405234801561001057600080fd5b50610636806100206000396000f300608060405260043610610078576000357c0100000000000000000000000000000000000000000000000000000000900463ffffffff1680630121b93f1461007d57806319e6e158146100aa57806335b8e820146100eb578063462e91ec1461019857806365fc783c14610201578063e8685ba11461022c575b600080fd5b34801561008957600080fd5b506100a860048036038101908080359060200190929190505050610257565b005b3480156100b657600080fd5b506100d560048036038101908080359060200190929190505050610383565b6040518082815260200191505060405180910390f35b3480156100f757600080fd5b50610116600480360381019080803590602001909291905050506103d8565b6040518083815260200180602001828103825283818151815260200191508051906020019080838360005b8381101561015c578082015181840152602081019050610141565b50505050905090810190601f1680156101895780820380516001836020036101000a031916815260200191505b50935050505060405180910390f35b3480156101a457600080fd5b506101ff600480360381019080803590602001908201803590602001908080601f0160208091040260200160405190810160405280939291908181526020018383808284378201915050505050509192919290505050610498565b005b34801561020d57600080fd5b50610216610552565b6040518082815260200191505060405180910390f35b34801561023857600080fd5b5061024161055c565b6040518082815260200191505060405180910390f35b6000600115156002600084815260200190815260200160002060010160009054906101000a900460ff161515141561037f5760001515600460003373ffffffffffffffffffffffffffffffffffffffff1673ffffffffffffffffffffffffffffffffffffffff16815260200190815260200160002060009054906101000a900460ff161515141561037e576001600460003373ffffffffffffffffffffffffffffffffffffffff1673ffffffffffffffffffffffffffffffffffffffff16815260200190815260200160002060006101000a81548160ff021916908315150217905550600160008154809291906001019190505590506020604051908101604052808381525060036000838152602001908152602001600020600082015181600001559050505b5b5050565b6000806000809150600090505b6001548110156103ce5783600360008381526020019081526020016000206000015414156103c15781806001019250505b8080600101915050610390565b8192505050919050565b600060608260026000858152602001908152602001600020600001808054600181600116156101000203166002900480601f0160208091040260200160405190810160405280929190818152602001828054600181600116156101000203166002900480156104885780601f1061045d57610100808354040283529160200191610488565b820191906000526020600020905b81548152906001019060200180831161046b57829003601f168201915b5050505050905091509150915091565b60008060008154809291906001019190505590506040805190810160405280838152602001600115158152506002600083815260200190815260200160002060008201518160000190805190602001906104f3929190610565565b5060208201518160010160006101000a81548160ff0219169083151502179055509050507fec542c373a064661ffef02d633752debf28f3e6c9f253680822d9ccf8b47aec6816040518082815260200191505060405180910390a15050565b6000600154905090565b60008054905090565b828054600181600116156101000203166002900490600052602060002090601f016020900481019282601f106105a657805160ff19168380011785556105d4565b828001600101855582156105d4579182015b828111156105d35782518255916020019190600101906105b8565b5b5090506105e191906105e5565b5090565b61060791905b808211156106035760008160009055506001016105eb565b5090565b905600a165627a7a7230582024987209476f98cfef6a746a2210494e431ad65a7dcdaa657afdaa047399c5240029",
  "source": "pragma solidity ^0.4.24;\n\ncontract Voting {\n    event AddedCandidate(uint candidateID);\n\n    struct Voter {\n        uint candidateIDVote;\n    }\n\n    struct Candidate {\n        string name;\n        bool doesExist;\n    }\n\n    uint numCandidates; // declares a state variable - number Of Candidates\n    uint numVoters;\n\n    mapping (uint => Candidate) candidates;\n    mapping (uint => Voter) voters;\n    mapping (address => bool ) Voted;\n\n    function addCandidate(string name) public {\n        uint candidateID = numCandidates++;\n        candidates[candidateID] = Candidate(name,true);\n        emit AddedCandidate(candidateID);\n    }\n\n    function vote(uint candidateID) public {\n        // checks if the struct exists for that candidate\n        if (candidates[candidateID].doesExist == true) {\n            if (Voted[msg.sender] == false){\n                Voted[msg.sender] =true;\n                uint voterID = numVoters++; //voterID is the return variable\n                voters[voterID] = Voter(candidateID);\n            }\n        }\n    }\n\n    function totalVotes(uint candidateID) view public returns (uint) {\n        uint numOfVotes = 0; // we will return this\n        for (uint i = 0; i < numVoters; i++) {\n            if (voters[i].candidateIDVote == candidateID) {\n                numOfVotes++;\n            }\n        }\n        return numOfVotes;\n    }\n\n    function getNumOfCandidates() public view returns(uint) {\n        return numCandidates;\n    }\n\n    function getNumOfVoters() public view returns(uint) {\n        return numVoters;\n    }\n\n    function getCandidate(uint candidateID) public view returns (uint,string) {\n        return (candidateID,candidates[candidateID].name);\n    }\n}",
  "sourcePath": "/home/ubuntu/Desktop/blockchain/Voting-with-ethereum/contracts/SimpleStorage.sol",
  "compiler": {
    "name": "solc",
    "version": "0.4.24+commit.e67f0147.Emscripten.clang"
  },
  "schemaVersion": "2.0.1",
  "updatedAt": "2019-04-25T04:14:16.885Z"
}